:100000000AC018951895189518951895189518956B
:100010001895189518958FED8DBFC0ECE0EC4E2E1D
:10002000DD275D2EEEE7F0E0A0E6B0E088278D93B7
:100030003197E9F7662480E081BB8FEF87BB8EE1C3
:1000400081BD86E081BD8CE19CE0A4E68D939C930C
:100050008FE190E0AAE68D939C9370E078BBC29A02
:1000600088EE93E05AD1C39A88EE93E056D1C69AAF
:1000700088EE93E052D1C49A88EE93E04ED181B5D8
:10008000886081BD70E078BB83990DC081E090E00D
:10009000A0E68D939C9381E090E0A8E68D939C93DD
:1000A00084E690E03AD1859B0AC081E090E0A0E62A
:1000B0008D939C93C39A84E690E02FD1C398849B40
:1000C0000AC081E090E0A0E68D939C93C39A84E6F9
:1000D00090E023D1C39882990AC081E090E0A0E625
:1000E0008D939C93C29A84E690E017D1C298A0E3C6
:1000F0000C9100FB81E00EF480E08F93A4E60D915B
:100100001C91003050E0150781E009F080E09F91DC
:100110008923882309F405C08CE19CE0A4E68D9333
:100120009C93A4E60D911C91003050E0150714F04B
:1001300009F001C008C0A4E60D911C9101501040C7
:10014000A4E60D931C93A4E60D911C91003050E0A1
:10015000150709F00AC081E090E0A0E68D939C931A
:10016000C69A84E690E0D9D0C698809905C08CE103
:100170009CE0A4E68D939C93A6E60D911C91003023
:1001800050E0150714F009F001C008C0A6E60D9173
:100190001C9101501040A6E60D931C93A6E60D910C
:1001A0001C91063050E0150709F001C0C09AA6E680
:1001B0000D911C91013050E0150709F001C0C09865
:1001C000A0E60D911C91013050E0150781E009F087
:1001D00080E08F93A2E60D911C91003050E015074E
:1001E00081E009F080E09F918923882309F405C00C
:1001F0008AE090E0A6E68D939C93A0E60D911C9179
:10020000013050E0150709F018C0C19A81E090E074
:10021000A2E68D939C93A4E60D911C91003050E0D2
:10022000150714F009F001C008C0A4E60D911C9157
:1002300001501040A4E60D931C93A0E60D911C9173
:10024000003050E0150709F006C0C19880E090E04A
:10025000A2E68D939C93A8E60D911C91013050E08D
:10026000150709F001C0C39AA8E60D911C91003052
:1002700050E0150709F001C0C39880E090E0A0E6C7
:100280008D939C9380E090E0A8E68D939C93AAE6E2
:100290000D911C91003050E0150714F009F001C0D9
:1002A00008C0AAE60D911C9101501040AAE60D93DA
:1002B0001C93AAE60D911C91063050E0150709F039
:1002C00001C0C59AAAE60D911C91013050E01507B6
:1002D00009F001C0C598AAE60D911C91003050E0CC
:1002E000150709F005C08FE190E0AAE68D939C9375
:1002F000A895C49A89E190E010D0C4988BE490E06E
:100300000CD0C2CEF894FFCF3197F1F708956894DE
:1003100062F80895E89462F80895EF93FF93EE274A
:10032000E82BE92B31F0E8EEF3E03197F1F7019794
:08033000D1F7FF91EF91089550
:00000001FF
